{
  "contractName": "LinkPal",
  "abi": [
    {
      "constant": true,
      "inputs": [],
      "name": "falseCount",
      "outputs": [
        {
          "name": "",
          "type": "uint8"
        }
      ],
      "payable": false,
      "stateMutability": "view",
      "type": "function"
    },
    {
      "constant": true,
      "inputs": [],
      "name": "trueCount",
      "outputs": [
        {
          "name": "",
          "type": "uint8"
        }
      ],
      "payable": false,
      "stateMutability": "view",
      "type": "function"
    },
    {
      "constant": true,
      "inputs": [],
      "name": "sellerAddress",
      "outputs": [
        {
          "name": "",
          "type": "address"
        }
      ],
      "payable": false,
      "stateMutability": "view",
      "type": "function"
    },
    {
      "constant": true,
      "inputs": [
        {
          "name": "",
          "type": "uint256"
        }
      ],
      "name": "jobIds",
      "outputs": [
        {
          "name": "",
          "type": "string"
        }
      ],
      "payable": false,
      "stateMutability": "view",
      "type": "function"
    },
    {
      "constant": true,
      "inputs": [],
      "name": "buyerAddress",
      "outputs": [
        {
          "name": "",
          "type": "address"
        }
      ],
      "payable": false,
      "stateMutability": "view",
      "type": "function"
    },
    {
      "constant": true,
      "inputs": [
        {
          "name": "",
          "type": "uint256"
        }
      ],
      "name": "oracles",
      "outputs": [
        {
          "name": "",
          "type": "address"
        }
      ],
      "payable": false,
      "stateMutability": "view",
      "type": "function"
    },
    {
      "constant": true,
      "inputs": [],
      "name": "released",
      "outputs": [
        {
          "name": "",
          "type": "bool"
        }
      ],
      "payable": false,
      "stateMutability": "view",
      "type": "function"
    },
    {
      "constant": true,
      "inputs": [],
      "name": "amount",
      "outputs": [
        {
          "name": "",
          "type": "uint256"
        }
      ],
      "payable": false,
      "stateMutability": "view",
      "type": "function"
    },
    {
      "constant": true,
      "inputs": [],
      "name": "invoiceID",
      "outputs": [
        {
          "name": "",
          "type": "string"
        }
      ],
      "payable": false,
      "stateMutability": "view",
      "type": "function"
    },
    {
      "constant": true,
      "inputs": [
        {
          "name": "",
          "type": "address"
        }
      ],
      "name": "linkbalances",
      "outputs": [
        {
          "name": "",
          "type": "uint256"
        }
      ],
      "payable": false,
      "stateMutability": "view",
      "type": "function"
    },
    {
      "constant": true,
      "inputs": [],
      "name": "currency",
      "outputs": [
        {
          "name": "",
          "type": "string"
        }
      ],
      "payable": false,
      "stateMutability": "view",
      "type": "function"
    },
    {
      "constant": true,
      "inputs": [],
      "name": "deploymentTime",
      "outputs": [
        {
          "name": "",
          "type": "uint256"
        }
      ],
      "payable": false,
      "stateMutability": "view",
      "type": "function"
    },
    {
      "inputs": [
        {
          "name": "_currency",
          "type": "string"
        },
        {
          "name": "_invoiceID",
          "type": "string"
        },
        {
          "name": "_sellerAddress",
          "type": "address"
        },
        {
          "name": "_buyerAddress",
          "type": "address"
        },
        {
          "name": "_amount",
          "type": "uint256"
        },
        {
          "name": "_jobIds",
          "type": "string[]"
        },
        {
          "name": "_oracles",
          "type": "address[]"
        },
        {
          "name": "_link",
          "type": "address"
        }
      ],
      "payable": true,
      "stateMutability": "payable",
      "type": "constructor"
    },
    {
      "anonymous": false,
      "inputs": [
        {
          "indexed": false,
          "name": "success",
          "type": "bool"
        }
      ],
      "name": "successNodeResponse",
      "type": "event"
    },
    {
      "anonymous": false,
      "inputs": [
        {
          "indexed": true,
          "name": "id",
          "type": "bytes32"
        }
      ],
      "name": "ChainlinkRequested",
      "type": "event"
    },
    {
      "anonymous": false,
      "inputs": [
        {
          "indexed": true,
          "name": "id",
          "type": "bytes32"
        }
      ],
      "name": "ChainlinkFulfilled",
      "type": "event"
    },
    {
      "anonymous": false,
      "inputs": [
        {
          "indexed": true,
          "name": "id",
          "type": "bytes32"
        }
      ],
      "name": "ChainlinkCancelled",
      "type": "event"
    },
    {
      "constant": true,
      "inputs": [],
      "name": "getjobIdsLength",
      "outputs": [
        {
          "name": "",
          "type": "uint256"
        }
      ],
      "payable": false,
      "stateMutability": "view",
      "type": "function"
    },
    {
      "constant": true,
      "inputs": [],
      "name": "getoraclesLength",
      "outputs": [
        {
          "name": "",
          "type": "uint256"
        }
      ],
      "payable": false,
      "stateMutability": "view",
      "type": "function"
    },
    {
      "constant": true,
      "inputs": [],
      "name": "getLinkBalance",
      "outputs": [
        {
          "name": "",
          "type": "uint256"
        }
      ],
      "payable": false,
      "stateMutability": "view",
      "type": "function"
    },
    {
      "constant": false,
      "inputs": [],
      "name": "requestConfirmations",
      "outputs": [],
      "payable": false,
      "stateMutability": "nonpayable",
      "type": "function"
    },
    {
      "constant": false,
      "inputs": [
        {
          "name": "_requestId",
          "type": "bytes32"
        },
        {
          "name": "paid",
          "type": "bool"
        }
      ],
      "name": "fulfillNodeRequest",
      "outputs": [],
      "payable": false,
      "stateMutability": "nonpayable",
      "type": "function"
    },
    {
      "constant": true,
      "inputs": [],
      "name": "getChainlinkToken",
      "outputs": [
        {
          "name": "",
          "type": "address"
        }
      ],
      "payable": false,
      "stateMutability": "view",
      "type": "function"
    },
    {
      "constant": false,
      "inputs": [],
      "name": "withdrawETH",
      "outputs": [],
      "payable": false,
      "stateMutability": "nonpayable",
      "type": "function"
    },
    {
      "constant": false,
      "inputs": [
        {
          "name": "_amount",
          "type": "uint256"
        }
      ],
      "name": "depositLink",
      "outputs": [],
      "payable": false,
      "stateMutability": "nonpayable",
      "type": "function"
    },
    {
      "constant": false,
      "inputs": [],
      "name": "withdrawLink",
      "outputs": [],
      "payable": false,
      "stateMutability": "nonpayable",
      "type": "function"
    }
  ],
  "bytecode": "0x6080604052600160045560405162002f5038038062002f5083398101806040526200002e919081019062000817565b42600b8190555087600c90805190602001906200004d92919062000306565b506000600660016101000a81548160ff021916908360ff1602179055506000600660026101000a81548160ff021916908360ff1602179055506000600660006101000a81548160ff0219169083151502179055508660079080519060200190620000b992919062000306565b5085600860006101000a81548173ffffffffffffffffffffffffffffffffffffffff021916908373ffffffffffffffffffffffffffffffffffffffff16021790555084600960006101000a81548173ffffffffffffffffffffffffffffffffffffffff021916908373ffffffffffffffffffffffffffffffffffffffff16021790555083600a8190555082600e90805190602001906200015b9291906200038d565b5081600f908051906020019062000174929190620003f4565b50600073ffffffffffffffffffffffffffffffffffffffff168173ffffffffffffffffffffffffffffffffffffffff161415620001ca57620001c4620001f3640100000000026401000000009004565b620001e5565b620001e481620002c2640100000000026401000000009004565b5b505050505050505062000a78565b620002c073c89bd4e1632d3a43cb03aaad5262cbe4038bc57173ffffffffffffffffffffffffffffffffffffffff166338cc48316040518163ffffffff167c0100000000000000000000000000000000000000000000000000000000028152600401602060405180830381600087803b1580156200027057600080fd5b505af115801562000285573d6000803e3d6000fd5b505050506040513d601f19601f82011682018060405250620002ab9190810190620007eb565b620002c2640100000000026401000000009004565b565b80600260006101000a81548173ffffffffffffffffffffffffffffffffffffffff021916908373ffffffffffffffffffffffffffffffffffffffff16021790555050565b828054600181600116156101000203166002900490600052602060002090601f016020900481019282601f106200034957805160ff19168380011785556200037a565b828001600101855582156200037a579182015b82811115620003795782518255916020019190600101906200035c565b5b50905062000389919062000483565b5090565b828054828255906000526020600020908101928215620003e1579160200282015b82811115620003e0578251829080519060200190620003cf929190620004ab565b5091602001919060010190620003ae565b5b509050620003f0919062000532565b5090565b82805482825590600052602060002090810192821562000470579160200282015b828111156200046f5782518260006101000a81548173ffffffffffffffffffffffffffffffffffffffff021916908373ffffffffffffffffffffffffffffffffffffffff1602179055509160200191906001019062000415565b5b5090506200047f919062000563565b5090565b620004a891905b80821115620004a45760008160009055506001016200048a565b5090565b90565b828054600181600116156101000203166002900490600052602060002090601f016020900481019282601f10620004ee57805160ff19168380011785556200051f565b828001600101855582156200051f579182015b828111156200051e57825182559160200191906001019062000501565b5b5090506200052e919062000483565b5090565b6200056091905b808211156200055c5760008181620005529190620005a9565b5060010162000539565b5090565b90565b620005a691905b80821115620005a257600081816101000a81549073ffffffffffffffffffffffffffffffffffffffff0219169055506001016200056a565b5090565b90565b50805460018160011615610100020316600290046000825580601f10620005d15750620005f2565b601f016020900490600052602060002090810190620005f1919062000483565b5b50565b600062000603825162000a18565b905092915050565b600082601f83011215156200061f57600080fd5b81516200063662000630826200096c565b6200093e565b915081818352602084019350602081019050838560208402820111156200065c57600080fd5b60005b83811015620006905781620006758882620005f5565b8452602084019350602083019250506001810190506200065f565b5050505092915050565b600082601f8301121515620006ae57600080fd5b8151620006c5620006bf8262000995565b6200093e565b9150818183526020840193506020810190508360005b838110156200070f5781518601620006f4888262000719565b845260208401935060208301925050600181019050620006db565b5050505092915050565b600082601f83011215156200072d57600080fd5b8151620007446200073e82620009be565b6200093e565b915080825260208301602083018583830111156200076157600080fd5b6200076e83828462000a42565b50505092915050565b600082601f83011215156200078b57600080fd5b8151620007a26200079c82620009eb565b6200093e565b91508082526020830160208301858383011115620007bf57600080fd5b620007cc83828462000a42565b50505092915050565b6000620007e3825162000a38565b905092915050565b600060208284031215620007fe57600080fd5b60006200080e84828501620005f5565b91505092915050565b600080600080600080600080610100898b0312156200083557600080fd5b600089015167ffffffffffffffff8111156200085057600080fd5b6200085e8b828c0162000777565b985050602089015167ffffffffffffffff8111156200087c57600080fd5b6200088a8b828c0162000777565b97505060406200089d8b828c01620005f5565b9650506060620008b08b828c01620005f5565b9550506080620008c38b828c01620007d5565b94505060a089015167ffffffffffffffff811115620008e157600080fd5b620008ef8b828c016200069a565b93505060c089015167ffffffffffffffff8111156200090d57600080fd5b6200091b8b828c016200060b565b92505060e06200092e8b828c01620005f5565b9150509295985092959890939650565b6000604051905081810181811067ffffffffffffffff821117156200096257600080fd5b8060405250919050565b600067ffffffffffffffff8211156200098457600080fd5b602082029050602081019050919050565b600067ffffffffffffffff821115620009ad57600080fd5b602082029050602081019050919050565b600067ffffffffffffffff821115620009d657600080fd5b601f19601f8301169050602081019050919050565b600067ffffffffffffffff82111562000a0357600080fd5b601f19601f8301169050602081019050919050565b600073ffffffffffffffffffffffffffffffffffffffff82169050919050565b6000819050919050565b60005b8381101562000a6257808201518184015260208101905062000a45565b8381111562000a72576000848401525b50505050565b6124c88062000a886000396000f30060806040526004361061011d576000357c0100000000000000000000000000000000000000000000000000000000900463ffffffff16806308605d7d146101225780630f2ace2a1461014b578063165d35e1146101765780631a14b20b146101a157806321537466146101cc5780633d9b2ae6146101f75780634162cc881461022257806344834aca1461025f57806350c5f9751461028a5780635b69a7d8146102b55780638dc654a2146102f257806396132521146103095780639fc4f77e14610334578063aa8c217c1461035f578063b0fb162f1461038a578063b3e8cc98146103a1578063c7badfbe146103cc578063e086e5ec14610409578063e5a6b10f14610420578063ecda10f51461044b578063f9eafa7014610476575b600080fd5b34801561012e57600080fd5b5061014960048036036101449190810190611e70565b61049f565b005b34801561015757600080fd5b506101606106ca565b60405161016d9190612355565b60405180910390f35b34801561018257600080fd5b5061018b6106dd565b6040516101989190612156565b60405180910390f35b3480156101ad57600080fd5b506101b66106ec565b6040516101c3919061233a565b60405180910390f35b3480156101d857600080fd5b506101e16106f9565b6040516101ee9190612355565b60405180910390f35b34801561020357600080fd5b5061020c61070c565b6040516102199190612156565b60405180910390f35b34801561022e57600080fd5b5061024960048036036102449190810190611eac565b610732565b6040516102569190612278565b60405180910390f35b34801561026b57600080fd5b506102746107ed565b6040516102819190612156565b60405180910390f35b34801561029657600080fd5b5061029f610813565b6040516102ac919061233a565b60405180910390f35b3480156102c157600080fd5b506102dc60048036036102d79190810190611eac565b61085a565b6040516102e99190612156565b60405180910390f35b3480156102fe57600080fd5b50610307610898565b005b34801561031557600080fd5b5061031e610a15565b60405161032b919061225d565b60405180910390f35b34801561034057600080fd5b50610349610a28565b604051610356919061233a565b60405180910390f35b34801561036b57600080fd5b50610374610a35565b604051610381919061233a565b60405180910390f35b34801561039657600080fd5b5061039f610a3b565b005b3480156103ad57600080fd5b506103b6610de6565b6040516103c39190612278565b60405180910390f35b3480156103d857600080fd5b506103f360048036036103ee9190810190611e1e565b610e84565b604051610400919061233a565b60405180910390f35b34801561041557600080fd5b5061041e610e9c565b005b34801561042c57600080fd5b506104356111a4565b6040516104429190612278565b60405180910390f35b34801561045757600080fd5b50610460611242565b60405161046d919061233a565b60405180910390f35b34801561048257600080fd5b5061049d60048036036104989190810190611eac565b611248565b005b8160056000826000191660001916815260200190815260200160002060009054906101000a900473ffffffffffffffffffffffffffffffffffffffff1673ffffffffffffffffffffffffffffffffffffffff163373ffffffffffffffffffffffffffffffffffffffff1614151561054b576040517f08c379a0000000000000000000000000000000000000000000000000000000008152600401610542906122fa565b60405180910390fd5b60056000826000191660001916815260200190815260200160002060006101000a81549073ffffffffffffffffffffffffffffffffffffffff021916905580600019167f7cc135e0cebb02c3480ae5d74d377283180a2601f8f644edf7987b009316c63a60405160405180910390a26001151582151514156105fa576001600660018282829054906101000a900460ff160192506101000a81548160ff021916908360ff160217905550610637565b600015158215151415610636576001600660028282829054906101000a900460ff160192506101000a81548160ff021916908360ff1602179055505b5b600660029054906101000a900460ff1660ff16600660019054906101000a900460ff1660ff16111561067f576001600660006101000a81548160ff0219169083151502179055505b7f59d9805d3a15aed4cbbaab04888205edfc7c5c12896488193cde9654574e4b42600660009054906101000a900460ff166040516106bd919061225d565b60405180910390a1505050565b600660029054906101000a900460ff1681565b60006106e76113ce565b905090565b6000600e80549050905090565b600660019054906101000a900460ff1681565b600860009054906101000a900473ffffffffffffffffffffffffffffffffffffffff1681565b600e8181548110151561074157fe5b906000526020600020016000915090508054600181600116156101000203166002900480601f0160208091040260200160405190810160405280929190818152602001828054600181600116156101000203166002900480156107e55780601f106107ba576101008083540402835291602001916107e5565b820191906000526020600020905b8154815290600101906020018083116107c857829003601f168201915b505050505081565b600960009054906101000a900473ffffffffffffffffffffffffffffffffffffffff1681565b6000600d60003373ffffffffffffffffffffffffffffffffffffffff1673ffffffffffffffffffffffffffffffffffffffff16815260200190815260200160002054905090565b600f8181548110151561086957fe5b906000526020600020016000915054906101000a900473ffffffffffffffffffffffffffffffffffffffff1681565b60006108a26113ce565b90508073ffffffffffffffffffffffffffffffffffffffff1663a9059cbb33600d60003373ffffffffffffffffffffffffffffffffffffffff1673ffffffffffffffffffffffffffffffffffffffff168152602001908152602001600020546040518363ffffffff167c010000000000000000000000000000000000000000000000000000000002815260040161093a929190612171565b602060405180830381600087803b15801561095457600080fd5b505af1158015610968573d6000803e3d6000fd5b505050506040513d601f19601f8201168201806040525061098c9190810190611e47565b15156109cd576040517f08c379a00000000000000000000000000000000000000000000000000000000081526004016109c4906122da565b60405180910390fd5b6000600d60003373ffffffffffffffffffffffffffffffffffffffff1673ffffffffffffffffffffffffffffffffffffffff1681526020019081526020016000208190555050565b600660009054906101000a900460ff1681565b6000600f80549050905090565b600a5481565b6000610a45611d18565b3373ffffffffffffffffffffffffffffffffffffffff163073ffffffffffffffffffffffffffffffffffffffff161480610acc57503373ffffffffffffffffffffffffffffffffffffffff16600860009054906101000a900473ffffffffffffffffffffffffffffffffffffffff1673ffffffffffffffffffffffffffffffffffffffff16145b80610b2457503373ffffffffffffffffffffffffffffffffffffffff16600960009054906101000a900473ffffffffffffffffffffffffffffffffffffffff1673ffffffffffffffffffffffffffffffffffffffff16145b1515610b65576040517f08c379a0000000000000000000000000000000000000000000000000000000008152600401610b5c9061231a565b60405180910390fd5b6000600660016101000a81548160ff021916908360ff1602179055506000600660026101000a81548160ff021916908360ff160217905550600091505b600f80549050821015610de257610c96610c6c600e84815481101515610bc457fe5b906000526020600020018054600181600116156101000203166002900480601f016020809104026020016040519081016040528092919081815260200182805460018160011615610100020316600290048015610c625780601f10610c3757610100808354040283529160200191610c62565b820191906000526020600020905b815481529060010190602001808311610c4557829003601f168201915b50505050506113f8565b306308605d7d7c010000000000000000000000000000000000000000000000000000000002611423565b9050610d7c6040805190810160405280600a81526020017f696e766f6963655f69640000000000000000000000000000000000000000000081525060078054600181600116156101000203166002900480601f016020809104026020016040519081016040528092919081815260200182805460018160011615610100020316600290048015610d675780601f10610d3c57610100808354040283529160200191610d67565b820191906000526020600020905b815481529060010190602001808311610d4a57829003601f168201915b5050505050836114549092919063ffffffff16565b610dd4600f83815481101515610d8e57fe5b9060005260206000200160009054906101000a900473ffffffffffffffffffffffffffffffffffffffff16826003670de0b6b3a7640000811515610dce57fe5b04611487565b508180600101925050610ba2565b5050565b60078054600181600116156101000203166002900480601f016020809104026020016040519081016040528092919081815260200182805460018160011615610100020316600290048015610e7c5780601f10610e5157610100808354040283529160200191610e7c565b820191906000526020600020905b815481529060010190602001808311610e5f57829003601f168201915b505050505081565b600d6020528060005260406000206000915090505481565b3373ffffffffffffffffffffffffffffffffffffffff163073ffffffffffffffffffffffffffffffffffffffff161480610f2357503373ffffffffffffffffffffffffffffffffffffffff16600860009054906101000a900473ffffffffffffffffffffffffffffffffffffffff1673ffffffffffffffffffffffffffffffffffffffff16145b80610f7b57503373ffffffffffffffffffffffffffffffffffffffff16600960009054906101000a900473ffffffffffffffffffffffffffffffffffffffff1673ffffffffffffffffffffffffffffffffffffffff16145b1515610fbc576040517f08c379a0000000000000000000000000000000000000000000000000000000008152600401610fb39061231a565b60405180910390fd5b600860009054906101000a900473ffffffffffffffffffffffffffffffffffffffff1673ffffffffffffffffffffffffffffffffffffffff163373ffffffffffffffffffffffffffffffffffffffff161480156110205750620151804201600b5411155b801561105d57506000600660019054906101000a900460ff1660ff1614158061105c57506000600660029054906101000a900460ff1660ff1614155b5b156110d55760001515600660009054906101000a900460ff16151514156110d0573373ffffffffffffffffffffffffffffffffffffffff166108fc600a549081150290604051600060405180830381858888f193505050501580156110c6573d6000803e3d6000fd5b506000600a819055505b6111a2565b600960009054906101000a900473ffffffffffffffffffffffffffffffffffffffff1673ffffffffffffffffffffffffffffffffffffffff163373ffffffffffffffffffffffffffffffffffffffff16148015611145575060011515600660009054906101000a900460ff161515145b156111a0573373ffffffffffffffffffffffffffffffffffffffff166108fc600a549081150290604051600060405180830381858888f19350505050158015611192573d6000803e3d6000fd5b506000600a819055506111a1565b5b5b565b600c8054600181600116156101000203166002900480601f01602080910402602001604051908101604052809291908181526020018280546001816001161561010002031660029004801561123a5780601f1061120f5761010080835404028352916020019161123a565b820191906000526020600020905b81548152906001019060200180831161121d57829003601f168201915b505050505081565b600b5481565b60006112526113ce565b90508073ffffffffffffffffffffffffffffffffffffffff1663a9059cbb30846040518363ffffffff167c01000000000000000000000000000000000000000000000000000000000281526004016112ab929190612171565b602060405180830381600087803b1580156112c557600080fd5b505af11580156112d9573d6000803e3d6000fd5b505050506040513d601f19601f820116820180604052506112fd9190810190611e47565b151561133e576040517f08c379a0000000000000000000000000000000000000000000000000000000008152600401611335906122da565b60405180910390fd5b611387600d60003373ffffffffffffffffffffffffffffffffffffffff1673ffffffffffffffffffffffffffffffffffffffff168152602001908152602001600020548361171a565b600d60003373ffffffffffffffffffffffffffffffffffffffff1673ffffffffffffffffffffffffffffffffffffffff168152602001908152602001600020819055505050565b6000600260009054906101000a900473ffffffffffffffffffffffffffffffffffffffff16905090565b60006060829050600081511415611415576000600102915061141d565b602083015191505b50919050565b61142b611d18565b611433611d18565b61144a85858584611771909392919063ffffffff16565b9150509392505050565b61146b82846080015161182b90919063ffffffff16565b61148281846080015161182b90919063ffffffff16565b505050565b600030600454604051602001808373ffffffffffffffffffffffffffffffffffffffff1673ffffffffffffffffffffffffffffffffffffffff166c01000000000000000000000000028152601401828152602001925050506040516020818303038152906040526040518082805190602001908083835b60208310151561152357805182526020820191506020810190506020830392506114fe565b6001836020036101000a038019825116818451168082178552505050505050905001915050604051809103902090506004548360600181815250508360056000836000191660001916815260200190815260200160002060006101000a81548173ffffffffffffffffffffffffffffffffffffffff021916908373ffffffffffffffffffffffffffffffffffffffff16021790555080600019167fb5e6e01e79f91267dc17b4e6314d5d4d03593d2ceee0fbb452b750bd70ea5af960405160405180910390a2600260009054906101000a900473ffffffffffffffffffffffffffffffffffffffff1673ffffffffffffffffffffffffffffffffffffffff16634000aea0858461163287611850565b6040518463ffffffff167c010000000000000000000000000000000000000000000000000000000002815260040161166c9392919061221f565b602060405180830381600087803b15801561168657600080fd5b505af115801561169a573d6000803e3d6000fd5b505050506040513d601f19601f820116820180604052506116be9190810190611e47565b15156116ff576040517f08c379a00000000000000000000000000000000000000000000000000000000081526004016116f6906122ba565b60405180910390fd5b60016004600082825401925050819055508090509392505050565b6000808284019050838110151515611767576040517f08c379a000000000000000000000000000000000000000000000000000000000815260040161175e9061229a565b60405180910390fd5b8091505092915050565b611779611d18565b611789856080015161010061194e565b50838560000190600019169081600019168152505082856020019073ffffffffffffffffffffffffffffffffffffffff16908173ffffffffffffffffffffffffffffffffffffffff16815250508185604001907bffffffffffffffffffffffffffffffffffffffffffffffffffffffff191690817bffffffffffffffffffffffffffffffffffffffffffffffffffffffff191681525050849050949350505050565b61183882600383516119a8565b61184b8183611b0690919063ffffffff16565b505050565b6060600360009054906101000a900473ffffffffffffffffffffffffffffffffffffffff1673ffffffffffffffffffffffffffffffffffffffff16634042994690507c010000000000000000000000000000000000000000000000000000000002600080846000015185602001518660400151876060015160018960800151600001516040516024016118ea98979695949392919061219a565b604051602081830303815290604052907bffffffffffffffffffffffffffffffffffffffffffffffffffffffff19166020820180517bffffffffffffffffffffffffffffffffffffffffffffffffffffffff83818316178352505050509050919050565b611956611d86565b600060208381151561196457fe5b061415156119815760208281151561197857fe5b06602003820191505b81836020018181525050604051808452600081528281016020016040525082905092915050565b6017811115156119da576119d48160058460ff169060020a0260ff161784611b2890919063ffffffff16565b50611b01565b60ff81111515611a2157611a04601860058460ff169060020a021784611b2890919063ffffffff16565b50611a1b81600185611b489092919063ffffffff16565b50611b00565b61ffff81111515611a6957611a4c601960058460ff169060020a021784611b2890919063ffffffff16565b50611a6381600285611b489092919063ffffffff16565b50611aff565b63ffffffff81111515611ab357611a96601a60058460ff169060020a021784611b2890919063ffffffff16565b50611aad81600485611b489092919063ffffffff16565b50611afe565b67ffffffffffffffff81111515611afd57611ae4601b60058460ff169060020a021784611b2890919063ffffffff16565b50611afb81600885611b489092919063ffffffff16565b505b5b5b5b5b505050565b611b0e611d86565b611b2083846000015151848551611b6a565b905092915050565b611b30611d86565b611b408384600001515184611c27565b905092915050565b611b50611d86565b611b61848560000151518585611c77565b90509392505050565b611b72611d86565b600080600085518511151515611b8757600080fd5b87602001518588011115611bb257611bb1886002611bab8b602001518b8a01611cd8565b02611cf4565b5b875180518860208301019450808988011115611bce5788870182525b60208801935050505b602085101515611bfc5781518352602083019250602082019150602085039450611bd7565b6001856020036101000a03905080198251168184511681811785525050879350505050949350505050565b611c2f611d86565b836020015183101515611c4e57611c4d846002866020015102611cf4565b5b8351805160208583010184815381861415611c6a576001820183525b5050508390509392505050565b611c7f611d86565b600085602001518584011115611c9f57611c9e86600287860102611cf4565b5b6001836101000a0390508551838682010185831982511617815281518588011115611cca5784870182525b505085915050949350505050565b600081831115611cea57829050611cee565b8190505b92915050565b606082600001519050611d07838361194e565b50611d128382611b06565b50505050565b60c06040519081016040528060008019168152602001600073ffffffffffffffffffffffffffffffffffffffff16815260200160007bffffffffffffffffffffffffffffffffffffffffffffffffffffffff1916815260200160008152602001611d80611da0565b81525090565b604080519081016040528060608152602001600081525090565b604080519081016040528060608152602001600081525090565b6000611dc6823561240a565b905092915050565b6000611dda823561242a565b905092915050565b6000611dee825161242a565b905092915050565b6000611e028235612436565b905092915050565b6000611e168235612440565b905092915050565b600060208284031215611e3057600080fd5b6000611e3e84828501611dba565b91505092915050565b600060208284031215611e5957600080fd5b6000611e6784828501611de2565b91505092915050565b60008060408385031215611e8357600080fd5b6000611e9185828601611df6565b9250506020611ea285828601611dce565b9150509250929050565b600060208284031215611ebe57600080fd5b6000611ecc84828501611e0a565b91505092915050565b611ede81612391565b82525050565b611eed816123b1565b82525050565b611efc816123bd565b82525050565b611f0b816123c7565b82525050565b6000611f1c8261237b565b808452611f3081602086016020860161244a565b611f398161247d565b602085010191505092915050565b6000611f5282612370565b808452611f6681602086016020860161244a565b611f6f8161247d565b602085010191505092915050565b6000611f8882612386565b808452611f9c81602086016020860161244a565b611fa58161247d565b602085010191505092915050565b6000601b82527f536166654d6174683a206164646974696f6e206f766572666c6f7700000000006020830152604082019050919050565b6000602382527f756e61626c6520746f207472616e73666572416e6443616c6c20746f206f726160208301527f636c6500000000000000000000000000000000000000000000000000000000006040830152606082019050919050565b6000601282527f556e61626c6520746f207472616e7366657200000000000000000000000000006020830152604082019050919050565b6000602882527f536f75726365206d75737420626520746865206f7261636c65206f662074686560208301527f20726571756573740000000000000000000000000000000000000000000000006040830152606082019050919050565b6000602682527f556e617574686f7269736564202c206d757374206265206275796572206f722060208301527f73656c6c657200000000000000000000000000000000000000000000000000006040830152606082019050919050565b612141816123f3565b82525050565b612150816123fd565b82525050565b600060208201905061216b6000830184611ed5565b92915050565b60006040820190506121866000830185611ed5565b6121936020830184612138565b9392505050565b6000610100820190506121b0600083018b611ed5565b6121bd602083018a612138565b6121ca6040830189611ef3565b6121d76060830188611ed5565b6121e46080830187611f02565b6121f160a0830186612138565b6121fe60c0830185612138565b81810360e08301526122108184611f47565b90509998505050505050505050565b60006060820190506122346000830186611ed5565b6122416020830185612138565b81810360408301526122538184611f11565b9050949350505050565b60006020820190506122726000830184611ee4565b92915050565b600060208201905081810360008301526122928184611f7d565b905092915050565b600060208201905081810360008301526122b381611fb3565b9050919050565b600060208201905081810360008301526122d381611fea565b9050919050565b600060208201905081810360008301526122f381612047565b9050919050565b600060208201905081810360008301526123138161207e565b9050919050565b60006020820190508181036000830152612333816120db565b9050919050565b600060208201905061234f6000830184612138565b92915050565b600060208201905061236a6000830184612147565b92915050565b600081519050919050565b600081519050919050565b600081519050919050565b600073ffffffffffffffffffffffffffffffffffffffff82169050919050565b60008115159050919050565b6000819050919050565b60007fffffffff0000000000000000000000000000000000000000000000000000000082169050919050565b6000819050919050565b600060ff82169050919050565b600073ffffffffffffffffffffffffffffffffffffffff82169050919050565b60008115159050919050565b6000819050919050565b6000819050919050565b60005b8381101561246857808201518184015260208101905061244d565b83811115612477576000848401525b50505050565b6000601f19601f83011690509190505600a265627a7a7230582002f8812b18b03ff4c1ab2711b075213631843eb40ce1c88de4144742bfcfe9356c6578706572696d656e74616cf50037",
  "source": "pragma solidity 0.4.24;\npragma experimental ABIEncoderV2;\n\n//import \"https://github.com/thodges-gh/chainlink/evm/contracts/ChainlinkClient.sol\";\n//import \"https://github.com/thodges-gh/chainlink/evm/contracts/vendor/Ownable.sol\";\nimport \"chainlink/contracts/ChainlinkClient.sol\";\nimport \"openzeppelin-solidity/contracts/ownership/Ownable.sol\";\n\nlibrary SafeMath{\n\n    function add(uint256 a, uint256 b) internal pure returns (uint256){    \n        uint256 c = a + b;\n        require(c >= a, \"SafeMath: addition overflow\");\n\n        return c;\n    }\n\n    function sub(uint256 a, uint256 b) internal pure returns (uint256){\n        require(b <= a, \"SafeMath: subtraction overflow\");\n        uint256 c = a-b;\n\n        return c;\n    }\n}\n\ncontract LinkPal is ChainlinkClient{\n\n    //Payment of 0.3 LINK to each node\n    uint256 constant private ORACLE_PAYMENT = LINK/3;\n    bool public released;\n    uint8 public trueCount;\n    uint8 public falseCount;\n\n    //These must all be set on creation\n    string public invoiceID;\n    address public sellerAddress;\n    address public buyerAddress;\n    uint256 public amount;\n    uint256 public deploymentTime;\n    string public currency;\n\n    mapping (address => uint256) public linkbalances;\n\n    using SafeMath for uint256;\n\n    event successNodeResponse(\n        bool success\n    );\n\n    //Arrays 1:1 of Oracales and the corresponding Jobs IDs in those oracles\n    string[] public jobIds;\n    address[] public oracles;\n    constructor(\n\n        string _currency,\n        string _invoiceID,\n        address  _sellerAddress,\n        address  _buyerAddress,\n        uint256  _amount,\n        string[] _jobIds,\n        address[] _oracles,\n        address _link\n    )public payable{\n\n        deploymentTime = block.timestamp;\n        currency = _currency;\n        trueCount = 0;\n        falseCount = 0;\n        released = false;\n        invoiceID = _invoiceID;\n        sellerAddress = _sellerAddress;\n        buyerAddress = _buyerAddress;\n        amount = _amount;\n        jobIds = _jobIds;\n        oracles = _oracles;\n        \n        if (_link == address(0)) {\n            setPublicChainlinkToken();\n        } else {\n            setChainlinkToken(_link);\n        }\n        \n    }\n\n    function getjobIdsLength() public constant returns(uint) {\n        return jobIds.length;\n    }\n\n    function getoraclesLength() public constant returns(uint) {\n        return oracles.length;\n    }\n\n    //Return link balance of the function invoker\n    function getLinkBalance() public constant returns(uint){\n        return linkbalances[msg.sender];\n    }\n    //modifier to only allow buyers to access functions\n    modifier buyerSellerContract(){\n        require(address(this) == msg.sender || sellerAddress == msg.sender || buyerAddress == msg.sender,\"Unauthorised , must be buyer or seller\");\n        _;\n    }\n\n    //Might Encounter ORACLE_PAYMENT problems with more than one oracle\n    //Needs more testing\n    function requestConfirmations()\n    public\n    buyerSellerContract\n    {\n        //Reset them to 0 to be able to safely re-run the oracles\n        trueCount = 0;\n        falseCount = 0;\n\n        //Loop to iterate through all the responses from different nodes\n        for(uint i = 0; i < oracles.length; i++){\n            Chainlink.Request memory req = buildChainlinkRequest(stringToBytes32(jobIds[i]), this, this.fulfillNodeRequest.selector);\n            req.add(\"invoice_id\", invoiceID);\n            sendChainlinkRequestTo(oracles[i], req, ORACLE_PAYMENT);\n        }\n\n    }\n\n    //This should fulfill the node request\n    function fulfillNodeRequest(bytes32 _requestId, bool paid)\n    public\n    recordChainlinkFulfillment(_requestId)\n    {\n        //emit NodeRequestFulfilled(_requestId, _output);\n        //Append to these to calculate if the funds should be released 0.2704\n        if(paid == true) {\n            //Invoice Paid\n            trueCount += 1;\n        }else if (paid == false){\n            //Invoice Not Paid Yet\n            falseCount += 1;\n        }\n        if(trueCount > falseCount){\n            released = true;\n        }\n        emit successNodeResponse(released);\n    }\n\n    //This isnt really needed\n    function getChainlinkToken() public view returns (address) {\n        return chainlinkTokenAddress();\n    }\n\n    //Withdraw ETH from contract\n    //Checks on who can withdraw should only be accessible by buyer and seller\n    //Maybe modifications that the seller can send the ETH to the buyer.\n    function withdrawETH() public buyerSellerContract {\n        if(msg.sender == sellerAddress && deploymentTime <= block.timestamp + 1 days && (trueCount != 0 || falseCount != 0)){\n            if(released == false){\n                //If a day has passed then the seller can take back his ETH\n                address(msg.sender).transfer(amount);\n                amount = 0;\n            }\n        }else if (msg.sender == buyerAddress && released == true){\n            //Withdraw the ETH from the contract\n            address(msg.sender).transfer(amount);\n            amount = 0;\n        }else{\n            //Do Nothing cause you do not have access to this contract\n        }\n    }\n\n    //Function to deposit LINK into contract and keep track of such deposits\n    function depositLink(uint256 _amount) public{\n        LinkTokenInterface link = LinkTokenInterface(chainlinkTokenAddress());\n        require(link.transfer(address(this),_amount),\"Unable to transfer\");\n        linkbalances[msg.sender] = SafeMath.add(linkbalances[msg.sender],_amount);\n    }\n\n    //Withdraw Link from contract\n    function withdrawLink() public {\n        LinkTokenInterface link = LinkTokenInterface(chainlinkTokenAddress());\n        require(link.transfer(msg.sender,linkbalances[msg.sender]), \"Unable to transfer\");\n        linkbalances[msg.sender] = 0;\n    }\n\n    function stringToBytes32(string memory source) private pure returns (bytes32 result) {\n        bytes memory tempEmptyStringTest = bytes(source);\n        if (tempEmptyStringTest.length == 0) {\n          return 0x0;\n        }\n        //Or this\n        assembly{\n          result := mload(add(source, 32))\n        }\n    }\n}",
  "sourcePath": "/home/nuclearvodka/Documents/LinkDex/contracts/LinkPal.sol",
  "compiler": {
    "name": "solc",
    "version": "0.4.24+commit.e67f0147.Emscripten.clang"
  },
  "schemaVersion": "3.0.19",
  "updatedAt": "2019-11-23T14:29:46.681Z",
  "devdoc": {
    "methods": {}
  },
  "userdoc": {
    "methods": {}
  }
}